{
  "_format": "hh-sol-artifact-1",
  "contractName": "Escrow",
  "sourceName": "contracts/Escrow.sol",
  "abi": [
    {
      "inputs": [
        {
          "internalType": "address",
          "name": "operator",
          "type": "address"
        }
      ],
      "stateMutability": "nonpayable",
      "type": "constructor"
    },
    {
      "inputs": [],
      "name": "AccessControlBadConfirmation",
      "type": "error"
    },
    {
      "inputs": [
        {
          "internalType": "address",
          "name": "account",
          "type": "address"
        },
        {
          "internalType": "bytes32",
          "name": "neededRole",
          "type": "bytes32"
        }
      ],
      "name": "AccessControlUnauthorizedAccount",
      "type": "error"
    },
    {
      "inputs": [],
      "name": "AlreadyConfirmed",
      "type": "error"
    },
    {
      "inputs": [],
      "name": "AlreadyDeposited",
      "type": "error"
    },
    {
      "inputs": [],
      "name": "AlreadyPaid",
      "type": "error"
    },
    {
      "inputs": [],
      "name": "InvalidNFT",
      "type": "error"
    },
    {
      "inputs": [],
      "name": "NotApproved",
      "type": "error"
    },
    {
      "inputs": [],
      "name": "NotBuyer",
      "type": "error"
    },
    {
      "inputs": [],
      "name": "NotSeller",
      "type": "error"
    },
    {
      "inputs": [],
      "name": "ReentrancyGuardReentrantCall",
      "type": "error"
    },
    {
      "inputs": [
        {
          "internalType": "enum Escrow.State",
          "name": "required",
          "type": "uint8"
        },
        {
          "internalType": "enum Escrow.State",
          "name": "current",
          "type": "uint8"
        }
      ],
      "name": "WrongState",
      "type": "error"
    },
    {
      "inputs": [],
      "name": "ZeroAddress",
      "type": "error"
    },
    {
      "anonymous": false,
      "inputs": [
        {
          "indexed": true,
          "internalType": "uint256",
          "name": "id",
          "type": "uint256"
        },
        {
          "indexed": false,
          "internalType": "string",
          "name": "agreementToken",
          "type": "string"
        },
        {
          "indexed": false,
          "internalType": "bytes32",
          "name": "agreementTokenHash",
          "type": "bytes32"
        }
      ],
      "name": "AgreementConfirmed",
      "type": "event"
    },
    {
      "anonymous": false,
      "inputs": [
        {
          "indexed": true,
          "internalType": "uint256",
          "name": "id",
          "type": "uint256"
        }
      ],
      "name": "EscrowCancelled",
      "type": "event"
    },
    {
      "anonymous": false,
      "inputs": [
        {
          "indexed": true,
          "internalType": "uint256",
          "name": "id",
          "type": "uint256"
        },
        {
          "indexed": true,
          "internalType": "address",
          "name": "seller",
          "type": "address"
        },
        {
          "indexed": true,
          "internalType": "address",
          "name": "buyer",
          "type": "address"
        },
        {
          "indexed": false,
          "internalType": "address",
          "name": "nft",
          "type": "address"
        },
        {
          "indexed": false,
          "internalType": "uint256",
          "name": "tokenId",
          "type": "uint256"
        },
        {
          "indexed": false,
          "internalType": "uint256",
          "name": "priceCents",
          "type": "uint256"
        },
        {
          "indexed": false,
          "internalType": "string",
          "name": "correlationIdRaw",
          "type": "string"
        },
        {
          "indexed": false,
          "internalType": "bytes32",
          "name": "correlationIdHash",
          "type": "bytes32"
        }
      ],
      "name": "EscrowOpened",
      "type": "event"
    },
    {
      "anonymous": false,
      "inputs": [
        {
          "indexed": true,
          "internalType": "uint256",
          "name": "id",
          "type": "uint256"
        },
        {
          "indexed": true,
          "internalType": "address",
          "name": "to",
          "type": "address"
        }
      ],
      "name": "NftReleased",
      "type": "event"
    },
    {
      "anonymous": false,
      "inputs": [
        {
          "indexed": true,
          "internalType": "uint256",
          "name": "id",
          "type": "uint256"
        },
        {
          "indexed": false,
          "internalType": "string",
          "name": "correlationIdRaw",
          "type": "string"
        },
        {
          "indexed": false,
          "internalType": "bytes32",
          "name": "correlationIdHash",
          "type": "bytes32"
        }
      ],
      "name": "PayToAgreementRequested",
      "type": "event"
    },
    {
      "anonymous": false,
      "inputs": [
        {
          "indexed": true,
          "internalType": "uint256",
          "name": "id",
          "type": "uint256"
        },
        {
          "indexed": false,
          "internalType": "string",
          "name": "correlationIdRaw",
          "type": "string"
        },
        {
          "indexed": false,
          "internalType": "bytes32",
          "name": "correlationIdHash",
          "type": "bytes32"
        },
        {
          "indexed": false,
          "internalType": "string",
          "name": "agreementToken",
          "type": "string"
        }
      ],
      "name": "PayToPaymentRequested",
      "type": "event"
    },
    {
      "anonymous": false,
      "inputs": [
        {
          "indexed": true,
          "internalType": "uint256",
          "name": "id",
          "type": "uint256"
        },
        {
          "indexed": false,
          "internalType": "string",
          "name": "receiptReference",
          "type": "string"
        },
        {
          "indexed": false,
          "internalType": "uint256",
          "name": "amountCents",
          "type": "uint256"
        },
        {
          "indexed": false,
          "internalType": "string",
          "name": "currency",
          "type": "string"
        }
      ],
      "name": "PaymentConfirmed",
      "type": "event"
    },
    {
      "anonymous": false,
      "inputs": [
        {
          "indexed": true,
          "internalType": "bytes32",
          "name": "role",
          "type": "bytes32"
        },
        {
          "indexed": true,
          "internalType": "bytes32",
          "name": "previousAdminRole",
          "type": "bytes32"
        },
        {
          "indexed": true,
          "internalType": "bytes32",
          "name": "newAdminRole",
          "type": "bytes32"
        }
      ],
      "name": "RoleAdminChanged",
      "type": "event"
    },
    {
      "anonymous": false,
      "inputs": [
        {
          "indexed": true,
          "internalType": "bytes32",
          "name": "role",
          "type": "bytes32"
        },
        {
          "indexed": true,
          "internalType": "address",
          "name": "account",
          "type": "address"
        },
        {
          "indexed": true,
          "internalType": "address",
          "name": "sender",
          "type": "address"
        }
      ],
      "name": "RoleGranted",
      "type": "event"
    },
    {
      "anonymous": false,
      "inputs": [
        {
          "indexed": true,
          "internalType": "bytes32",
          "name": "role",
          "type": "bytes32"
        },
        {
          "indexed": true,
          "internalType": "address",
          "name": "account",
          "type": "address"
        },
        {
          "indexed": true,
          "internalType": "address",
          "name": "sender",
          "type": "address"
        }
      ],
      "name": "RoleRevoked",
      "type": "event"
    },
    {
      "inputs": [],
      "name": "DEFAULT_ADMIN_ROLE",
      "outputs": [
        {
          "internalType": "bytes32",
          "name": "",
          "type": "bytes32"
        }
      ],
      "stateMutability": "view",
      "type": "function"
    },
    {
      "inputs": [],
      "name": "OPERATOR_ROLE",
      "outputs": [
        {
          "internalType": "bytes32",
          "name": "",
          "type": "bytes32"
        }
      ],
      "stateMutability": "view",
      "type": "function"
    },
    {
      "inputs": [
        {
          "internalType": "uint256",
          "name": "id",
          "type": "uint256"
        }
      ],
      "name": "cancel",
      "outputs": [],
      "stateMutability": "nonpayable",
      "type": "function"
    },
    {
      "inputs": [
        {
          "internalType": "uint256",
          "name": "id",
          "type": "uint256"
        },
        {
          "internalType": "string",
          "name": "agreementToken",
          "type": "string"
        }
      ],
      "name": "confirmAgreement",
      "outputs": [],
      "stateMutability": "nonpayable",
      "type": "function"
    },
    {
      "inputs": [
        {
          "internalType": "uint256",
          "name": "id",
          "type": "uint256"
        },
        {
          "internalType": "string",
          "name": "receiptReference",
          "type": "string"
        },
        {
          "internalType": "uint256",
          "name": "amountCents",
          "type": "uint256"
        },
        {
          "internalType": "string",
          "name": "currency",
          "type": "string"
        }
      ],
      "name": "confirmPayment",
      "outputs": [],
      "stateMutability": "nonpayable",
      "type": "function"
    },
    {
      "inputs": [
        {
          "internalType": "uint256",
          "name": "id",
          "type": "uint256"
        }
      ],
      "name": "depositNFT",
      "outputs": [],
      "stateMutability": "nonpayable",
      "type": "function"
    },
    {
      "inputs": [
        {
          "internalType": "uint256",
          "name": "id",
          "type": "uint256"
        }
      ],
      "name": "getDeal",
      "outputs": [
        {
          "components": [
            {
              "internalType": "address",
              "name": "seller",
              "type": "address"
            },
            {
              "internalType": "address",
              "name": "buyer",
              "type": "address"
            },
            {
              "internalType": "address",
              "name": "nft",
              "type": "address"
            },
            {
              "internalType": "uint256",
              "name": "tokenId",
              "type": "uint256"
            },
            {
              "internalType": "uint256",
              "name": "priceCents",
              "type": "uint256"
            },
            {
              "internalType": "string",
              "name": "correlationIdRaw",
              "type": "string"
            },
            {
              "internalType": "bytes32",
              "name": "correlationIdHash",
              "type": "bytes32"
            },
            {
              "internalType": "bytes32",
              "name": "agreementTokenHash",
              "type": "bytes32"
            },
            {
              "internalType": "bool",
              "name": "nftDeposited",
              "type": "bool"
            },
            {
              "internalType": "bool",
              "name": "agreementConfirmed",
              "type": "bool"
            },
            {
              "internalType": "bool",
              "name": "paymentConfirmed",
              "type": "bool"
            },
            {
              "internalType": "enum Escrow.State",
              "name": "state",
              "type": "uint8"
            }
          ],
          "internalType": "struct Escrow.Deal",
          "name": "",
          "type": "tuple"
        }
      ],
      "stateMutability": "view",
      "type": "function"
    },
    {
      "inputs": [
        {
          "internalType": "bytes32",
          "name": "role",
          "type": "bytes32"
        }
      ],
      "name": "getRoleAdmin",
      "outputs": [
        {
          "internalType": "bytes32",
          "name": "",
          "type": "bytes32"
        }
      ],
      "stateMutability": "view",
      "type": "function"
    },
    {
      "inputs": [
        {
          "internalType": "bytes32",
          "name": "role",
          "type": "bytes32"
        },
        {
          "internalType": "address",
          "name": "account",
          "type": "address"
        }
      ],
      "name": "grantRole",
      "outputs": [],
      "stateMutability": "nonpayable",
      "type": "function"
    },
    {
      "inputs": [
        {
          "internalType": "bytes32",
          "name": "role",
          "type": "bytes32"
        },
        {
          "internalType": "address",
          "name": "account",
          "type": "address"
        }
      ],
      "name": "hasRole",
      "outputs": [
        {
          "internalType": "bool",
          "name": "",
          "type": "bool"
        }
      ],
      "stateMutability": "view",
      "type": "function"
    },
    {
      "inputs": [],
      "name": "nextId",
      "outputs": [
        {
          "internalType": "uint256",
          "name": "",
          "type": "uint256"
        }
      ],
      "stateMutability": "view",
      "type": "function"
    },
    {
      "inputs": [
        {
          "internalType": "address",
          "name": "",
          "type": "address"
        },
        {
          "internalType": "address",
          "name": "",
          "type": "address"
        },
        {
          "internalType": "uint256",
          "name": "",
          "type": "uint256"
        },
        {
          "internalType": "bytes",
          "name": "",
          "type": "bytes"
        }
      ],
      "name": "onERC721Received",
      "outputs": [
        {
          "internalType": "bytes4",
          "name": "",
          "type": "bytes4"
        }
      ],
      "stateMutability": "pure",
      "type": "function"
    },
    {
      "inputs": [
        {
          "internalType": "address",
          "name": "buyer",
          "type": "address"
        },
        {
          "internalType": "address",
          "name": "nft",
          "type": "address"
        },
        {
          "internalType": "uint256",
          "name": "tokenId",
          "type": "uint256"
        },
        {
          "internalType": "uint256",
          "name": "priceCents",
          "type": "uint256"
        },
        {
          "internalType": "string",
          "name": "correlationIdRaw",
          "type": "string"
        }
      ],
      "name": "openEscrow",
      "outputs": [
        {
          "internalType": "uint256",
          "name": "id",
          "type": "uint256"
        }
      ],
      "stateMutability": "nonpayable",
      "type": "function"
    },
    {
      "inputs": [
        {
          "internalType": "bytes32",
          "name": "role",
          "type": "bytes32"
        },
        {
          "internalType": "address",
          "name": "callerConfirmation",
          "type": "address"
        }
      ],
      "name": "renounceRole",
      "outputs": [],
      "stateMutability": "nonpayable",
      "type": "function"
    },
    {
      "inputs": [
        {
          "internalType": "bytes32",
          "name": "role",
          "type": "bytes32"
        },
        {
          "internalType": "address",
          "name": "account",
          "type": "address"
        }
      ],
      "name": "revokeRole",
      "outputs": [],
      "stateMutability": "nonpayable",
      "type": "function"
    },
    {
      "inputs": [
        {
          "internalType": "bytes4",
          "name": "interfaceId",
          "type": "bytes4"
        }
      ],
      "name": "supportsInterface",
      "outputs": [
        {
          "internalType": "bool",
          "name": "",
          "type": "bool"
        }
      ],
      "stateMutability": "view",
      "type": "function"
    }
  ],
  "bytecode": "0x60806040523480156200001157600080fd5b5060405162002cae38038062002cae8339818101604052810190620000379190620002a3565b60018081905550620000536000801b33620000c460201b60201c565b50600073ffffffffffffffffffffffffffffffffffffffff168173ffffffffffffffffffffffffffffffffffffffff1614620000bd57620000bb7f97667070c54ef182b0f5858b034beac1b6f3089aa2d3188bb1e8929f4fa9b92982620000c460201b60201c565b505b50620002d5565b6000620000d88383620001c760201b60201c565b620001bc57600160008085815260200190815260200160002060000160008473ffffffffffffffffffffffffffffffffffffffff1673ffffffffffffffffffffffffffffffffffffffff16815260200190815260200160002060006101000a81548160ff021916908315150217905550620001586200023160201b60201c565b73ffffffffffffffffffffffffffffffffffffffff168273ffffffffffffffffffffffffffffffffffffffff16847f2f8788117e7eff1d82e926ec794901d17c78024a50270940304540a733656f0d60405160405180910390a460019050620001c1565b600090505b92915050565b600080600084815260200190815260200160002060000160008373ffffffffffffffffffffffffffffffffffffffff1673ffffffffffffffffffffffffffffffffffffffff16815260200190815260200160002060009054906101000a900460ff16905092915050565b600033905090565b600080fd5b600073ffffffffffffffffffffffffffffffffffffffff82169050919050565b60006200026b826200023e565b9050919050565b6200027d816200025e565b81146200028957600080fd5b50565b6000815190506200029d8162000272565b92915050565b600060208284031215620002bc57620002bb62000239565b5b6000620002cc848285016200028c565b91505092915050565b6129c980620002e56000396000f3fe608060405234801561001057600080fd5b50600436106101005760003560e01c806361b8ce8c11610097578063a217fddf11610066578063a217fddf146102cf578063d547741f146102ed578063e91a7ca614610309578063f5b541a61461032557610100565b806361b8ce8c1461023557806382fd5bac1461025357806391d14854146102835780639f74907e146102b357610100565b8063248a9ca3116100d3578063248a9ca3146101b15780632f2ff15d146101e157806336568abe146101fd57806340e58ee51461021957610100565b806301ffc9a714610105578063150b7a02146101355780631cf75672146101655780631de2b0b814610195575b600080fd5b61011f600480360381019061011a9190611af8565b610343565b60405161012c9190611b40565b60405180910390f35b61014f600480360381019061014a9190611c54565b6103bd565b60405161015c9190611ceb565b60405180910390f35b61017f600480360381019061017a9190611d5c565b6103d2565b60405161018c9190611e05565b60405180910390f35b6101af60048036038101906101aa9190611e20565b6107d3565b005b6101cb60048036038101906101c69190611eb6565b6109e3565b6040516101d89190611ef2565b60405180910390f35b6101fb60048036038101906101f69190611f0d565b610a02565b005b61021760048036038101906102129190611f0d565b610a24565b005b610233600480360381019061022e9190611f4d565b610a9f565b005b61023d610c43565b60405161024a9190611e05565b60405180910390f35b61026d60048036038101906102689190611f4d565b610c59565b60405161027a91906121c1565b60405180910390f35b61029d60048036038101906102989190611f0d565b610ecf565b6040516102aa9190611b40565b60405180910390f35b6102cd60048036038101906102c891906121e3565b610f39565b005b6102d7611218565b6040516102e49190611ef2565b60405180910390f35b61030760048036038101906103029190611f0d565b61121f565b005b610323600480360381019061031e9190611f4d565b611241565b005b61032d6116a8565b60405161033a9190611ef2565b60405180910390f35b60007f7965db0b000000000000000000000000000000000000000000000000000000007bffffffffffffffffffffffffffffffffffffffffffffffffffffffff1916827bffffffffffffffffffffffffffffffffffffffffffffffffffffffff191614806103b657506103b5826116cc565b5b9050919050565b600063150b7a0260e01b905095945050505050565b60008073ffffffffffffffffffffffffffffffffffffffff168773ffffffffffffffffffffffffffffffffffffffff16148061043a5750600073ffffffffffffffffffffffffffffffffffffffff168673ffffffffffffffffffffffffffffffffffffffff16145b15610471576040517fd92e233d00000000000000000000000000000000000000000000000000000000815260040160405180910390fd5b600260008154610480906122b9565b91905081905590506000838360405161049a929190612340565b604051809103902090506040518061018001604052803373ffffffffffffffffffffffffffffffffffffffff1681526020018973ffffffffffffffffffffffffffffffffffffffff1681526020018873ffffffffffffffffffffffffffffffffffffffff16815260200187815260200186815260200185858080601f016020809104026020016040519081016040528093929190818152602001838380828437600081840152601f19601f8201169050808301925050505050505081526020018281526020016000801b81526020016000151581526020016000151581526020016000151581526020016001600581111561059857610597612046565b5b8152506003600084815260200190815260200160002060008201518160000160006101000a81548173ffffffffffffffffffffffffffffffffffffffff021916908373ffffffffffffffffffffffffffffffffffffffff16021790555060208201518160010160006101000a81548173ffffffffffffffffffffffffffffffffffffffff021916908373ffffffffffffffffffffffffffffffffffffffff16021790555060408201518160020160006101000a81548173ffffffffffffffffffffffffffffffffffffffff021916908373ffffffffffffffffffffffffffffffffffffffff160217905550606082015181600301556080820151816004015560a08201518160050190816106ac9190612594565b5060c0820151816006015560e082015181600701556101008201518160080160006101000a81548160ff0219169083151502179055506101208201518160080160016101000a81548160ff0219169083151502179055506101408201518160080160026101000a81548160ff0219169083151502179055506101608201518160080160036101000a81548160ff021916908360058111156107505761074f612046565b5b02179055509050508773ffffffffffffffffffffffffffffffffffffffff163373ffffffffffffffffffffffffffffffffffffffff16837fc80b44e107717651b0fde016c8d55b417dbc92794d2a5d51970514a2dd7571cb8a8a8a8a8a896040516107c0969594939291906126b3565b60405180910390a4509695505050505050565b7f97667070c54ef182b0f5858b034beac1b6f3089aa2d3188bb1e8929f4fa9b9296107fd81611736565b60006003600086815260200190815260200160002090506002600581111561082857610827612046565b5b8160080160039054906101000a900460ff16600581111561084c5761084b612046565b5b146108a25760028160080160039054906101000a900460ff166040517f5649f63b00000000000000000000000000000000000000000000000000000000815260040161089992919061271e565b60405180910390fd5b8060080160019054906101000a900460ff16156108eb576040517f5f8a9c0b00000000000000000000000000000000000000000000000000000000815260040160405180910390fd5b600084846040516108fd929190612340565b6040518091039020905080826007018190555060018260080160016101000a81548160ff02191690831515021790555060038260080160036101000a81548160ff0219169083600581111561095557610954612046565b5b0217905550857f42a3384f06b0f100455725e00715d7d9fa792ee676416963521e9a597688478386868460405161098e93929190612747565b60405180910390a2857f0c7ab97bae1f720fe40cc60bef14b49938517b0cf03b727ff2c6408b0ec2a89383600501846006015488886040516109d394939291906127fd565b60405180910390a2505050505050565b6000806000838152602001908152602001600020600101549050919050565b610a0b826109e3565b610a1481611736565b610a1e838361174a565b50505050565b610a2c61183b565b73ffffffffffffffffffffffffffffffffffffffff168173ffffffffffffffffffffffffffffffffffffffff1614610a90576040517f6697b23200000000000000000000000000000000000000000000000000000000815260040160405180910390fd5b610a9a8282611843565b505050565b600060036000838152602001908152602001600020905060016005811115610aca57610ac9612046565b5b8160080160039054906101000a900460ff166005811115610aee57610aed612046565b5b14610b445760018160080160039054906101000a900460ff166040517f5649f63b000000000000000000000000000000000000000000000000000000008152600401610b3b92919061271e565b60405180910390fd5b8060000160009054906101000a900473ffffffffffffffffffffffffffffffffffffffff1673ffffffffffffffffffffffffffffffffffffffff163373ffffffffffffffffffffffffffffffffffffffff1614158015610bae5750610bac6000801b33610ecf565b155b15610be5576040517f5ec8235100000000000000000000000000000000000000000000000000000000815260040160405180910390fd5b60058160080160036101000a81548160ff02191690836005811115610c0d57610c0c612046565b5b0217905550817f0d977c6b1a383ac5ce532b4a668d0ef9ad38478e1a5ff28abb221f4b682b264360405160405180910390a25050565b60006001600254610c549190612844565b905090565b610c616119d5565b60036000838152602001908152602001600020604051806101800160405290816000820160009054906101000a900473ffffffffffffffffffffffffffffffffffffffff1673ffffffffffffffffffffffffffffffffffffffff1673ffffffffffffffffffffffffffffffffffffffff1681526020016001820160009054906101000a900473ffffffffffffffffffffffffffffffffffffffff1673ffffffffffffffffffffffffffffffffffffffff1673ffffffffffffffffffffffffffffffffffffffff1681526020016002820160009054906101000a900473ffffffffffffffffffffffffffffffffffffffff1673ffffffffffffffffffffffffffffffffffffffff1673ffffffffffffffffffffffffffffffffffffffff1681526020016003820154815260200160048201548152602001600582018054610da6906123b7565b80601f0160208091040260200160405190810160405280929190818152602001828054610dd2906123b7565b8015610e1f5780601f10610df457610100808354040283529160200191610e1f565b820191906000526020600020905b815481529060010190602001808311610e0257829003601f168201915b5050505050815260200160068201548152602001600782015481526020016008820160009054906101000a900460ff161515151581526020016008820160019054906101000a900460ff161515151581526020016008820160029054906101000a900460ff161515151581526020016008820160039054906101000a900460ff166005811115610eb257610eb1612046565b5b6005811115610ec457610ec3612046565b5b815250509050919050565b600080600084815260200190815260200160002060000160008373ffffffffffffffffffffffffffffffffffffffff1673ffffffffffffffffffffffffffffffffffffffff16815260200190815260200160002060009054906101000a900460ff16905092915050565b7f97667070c54ef182b0f5858b034beac1b6f3089aa2d3188bb1e8929f4fa9b929610f6381611736565b610f6b611935565b600060036000898152602001908152602001600020905060036005811115610f9657610f95612046565b5b8160080160039054906101000a900460ff166005811115610fba57610fb9612046565b5b146110105760038160080160039054906101000a900460ff166040517f5649f63b00000000000000000000000000000000000000000000000000000000815260040161100792919061271e565b60405180910390fd5b8060080160029054906101000a900460ff1615611059576040517fd70a0e3000000000000000000000000000000000000000000000000000000000815260040160405180910390fd5b60018160080160026101000a81548160ff02191690831515021790555060048160080160036101000a81548160ff0219169083600581111561109e5761109d612046565b5b0217905550877fd8785d33ed14d255e072f68b4479f8b493431bb23ba47b5912ccd4c36c360d2588888888886040516110db959493929190612878565b60405180910390a28060020160009054906101000a900473ffffffffffffffffffffffffffffffffffffffff1673ffffffffffffffffffffffffffffffffffffffff166342842e0e308360010160009054906101000a900473ffffffffffffffffffffffffffffffffffffffff1684600301546040518463ffffffff1660e01b815260040161116c939291906128c1565b600060405180830381600087803b15801561118657600080fd5b505af115801561119a573d6000803e3d6000fd5b505050508060010160009054906101000a900473ffffffffffffffffffffffffffffffffffffffff1673ffffffffffffffffffffffffffffffffffffffff16887f86f460f12ae3f5c3bde65560835f37f6375ca8937a87426727cae78b224aa82c60405160405180910390a35061120f61197b565b50505050505050565b6000801b81565b611228826109e3565b61123181611736565b61123b8383611843565b50505050565b60006003600083815260200190815260200160002090506001600581111561126c5761126b612046565b5b8160080160039054906101000a900460ff1660058111156112905761128f612046565b5b146112e65760018160080160039054906101000a900460ff166040517f5649f63b0000000000000000000000000000000000000000000000000000000081526004016112dd92919061271e565b60405180910390fd5b8060000160009054906101000a900473ffffffffffffffffffffffffffffffffffffffff1673ffffffffffffffffffffffffffffffffffffffff163373ffffffffffffffffffffffffffffffffffffffff161461136f576040517f5ec8235100000000000000000000000000000000000000000000000000000000815260040160405180910390fd5b8060080160009054906101000a900460ff16156113b8576040517fd5a8211500000000000000000000000000000000000000000000000000000000815260040160405180910390fd5b60008160020160009054906101000a900473ffffffffffffffffffffffffffffffffffffffff1690503373ffffffffffffffffffffffffffffffffffffffff168173ffffffffffffffffffffffffffffffffffffffff16636352211e84600301546040518263ffffffff1660e01b81526004016114359190611e05565b602060405180830381865afa158015611452573d6000803e3d6000fd5b505050506040513d601f19601f82011682018060405250810190611476919061290d565b73ffffffffffffffffffffffffffffffffffffffff16146114c3576040517f0f3e2a3e00000000000000000000000000000000000000000000000000000000815260040160405180910390fd5b3073ffffffffffffffffffffffffffffffffffffffff168173ffffffffffffffffffffffffffffffffffffffff1663081812fc84600301546040518263ffffffff1660e01b81526004016115179190611e05565b602060405180830381865afa158015611534573d6000803e3d6000fd5b505050506040513d601f19601f82011682018060405250810190611558919061290d565b73ffffffffffffffffffffffffffffffffffffffff16146115a5576040517fc19f17a900000000000000000000000000000000000000000000000000000000815260040160405180910390fd5b8073ffffffffffffffffffffffffffffffffffffffff166342842e0e333085600301546040518463ffffffff1660e01b81526004016115e6939291906128c1565b600060405180830381600087803b15801561160057600080fd5b505af1158015611614573d6000803e3d6000fd5b5050505060018260080160006101000a81548160ff02191690831515021790555060028260080160036101000a81548160ff0219169083600581111561165d5761165c612046565b5b0217905550827f49bfa5826c3784fd39c62eeef6ae07423a7ac7e9d46793c2d724663cf11413f983600501846006015460405161169b92919061293a565b60405180910390a2505050565b7f97667070c54ef182b0f5858b034beac1b6f3089aa2d3188bb1e8929f4fa9b92981565b60007f01ffc9a7000000000000000000000000000000000000000000000000000000007bffffffffffffffffffffffffffffffffffffffffffffffffffffffff1916827bffffffffffffffffffffffffffffffffffffffffffffffffffffffff1916149050919050565b6117478161174261183b565b611984565b50565b60006117568383610ecf565b61183057600160008085815260200190815260200160002060000160008473ffffffffffffffffffffffffffffffffffffffff1673ffffffffffffffffffffffffffffffffffffffff16815260200190815260200160002060006101000a81548160ff0219169083151502179055506117cd61183b565b73ffffffffffffffffffffffffffffffffffffffff168273ffffffffffffffffffffffffffffffffffffffff16847f2f8788117e7eff1d82e926ec794901d17c78024a50270940304540a733656f0d60405160405180910390a460019050611835565b600090505b92915050565b600033905090565b600061184f8383610ecf565b1561192a57600080600085815260200190815260200160002060000160008473ffffffffffffffffffffffffffffffffffffffff1673ffffffffffffffffffffffffffffffffffffffff16815260200190815260200160002060006101000a81548160ff0219169083151502179055506118c761183b565b73ffffffffffffffffffffffffffffffffffffffff168273ffffffffffffffffffffffffffffffffffffffff16847ff6391f5c32d9c69d2a47ea670b442974b53935d1edc7fd64eb21e047a839171b60405160405180910390a46001905061192f565b600090505b92915050565b600260015403611971576040517f3ee5aeb500000000000000000000000000000000000000000000000000000000815260040160405180910390fd5b6002600181905550565b60018081905550565b61198e8282610ecf565b6119d15780826040517fe2517d3f0000000000000000000000000000000000000000000000000000000081526004016119c892919061296a565b60405180910390fd5b5050565b604051806101800160405280600073ffffffffffffffffffffffffffffffffffffffff168152602001600073ffffffffffffffffffffffffffffffffffffffff168152602001600073ffffffffffffffffffffffffffffffffffffffff168152602001600081526020016000815260200160608152602001600080191681526020016000801916815260200160001515815260200160001515815260200160001515815260200160006005811115611a9057611a8f612046565b5b81525090565b600080fd5b600080fd5b60007fffffffff0000000000000000000000000000000000000000000000000000000082169050919050565b611ad581611aa0565b8114611ae057600080fd5b50565b600081359050611af281611acc565b92915050565b600060208284031215611b0e57611b0d611a96565b5b6000611b1c84828501611ae3565b91505092915050565b60008115159050919050565b611b3a81611b25565b82525050565b6000602082019050611b556000830184611b31565b92915050565b600073ffffffffffffffffffffffffffffffffffffffff82169050919050565b6000611b8682611b5b565b9050919050565b611b9681611b7b565b8114611ba157600080fd5b50565b600081359050611bb381611b8d565b92915050565b6000819050919050565b611bcc81611bb9565b8114611bd757600080fd5b50565b600081359050611be981611bc3565b92915050565b600080fd5b600080fd5b600080fd5b60008083601f840112611c1457611c13611bef565b5b8235905067ffffffffffffffff811115611c3157611c30611bf4565b5b602083019150836001820283011115611c4d57611c4c611bf9565b5b9250929050565b600080600080600060808688031215611c7057611c6f611a96565b5b6000611c7e88828901611ba4565b9550506020611c8f88828901611ba4565b9450506040611ca088828901611bda565b935050606086013567ffffffffffffffff811115611cc157611cc0611a9b565b5b611ccd88828901611bfe565b92509250509295509295909350565b611ce581611aa0565b82525050565b6000602082019050611d006000830184611cdc565b92915050565b60008083601f840112611d1c57611d1b611bef565b5b8235905067ffffffffffffffff811115611d3957611d38611bf4565b5b602083019150836001820283011115611d5557611d54611bf9565b5b9250929050565b60008060008060008060a08789031215611d7957611d78611a96565b5b6000611d8789828a01611ba4565b9650506020611d9889828a01611ba4565b9550506040611da989828a01611bda565b9450506060611dba89828a01611bda565b935050608087013567ffffffffffffffff811115611ddb57611dda611a9b565b5b611de789828a01611d06565b92509250509295509295509295565b611dff81611bb9565b82525050565b6000602082019050611e1a6000830184611df6565b92915050565b600080600060408486031215611e3957611e38611a96565b5b6000611e4786828701611bda565b935050602084013567ffffffffffffffff811115611e6857611e67611a9b565b5b611e7486828701611d06565b92509250509250925092565b6000819050919050565b611e9381611e80565b8114611e9e57600080fd5b50565b600081359050611eb081611e8a565b92915050565b600060208284031215611ecc57611ecb611a96565b5b6000611eda84828501611ea1565b91505092915050565b611eec81611e80565b82525050565b6000602082019050611f076000830184611ee3565b92915050565b60008060408385031215611f2457611f23611a96565b5b6000611f3285828601611ea1565b9250506020611f4385828601611ba4565b9150509250929050565b600060208284031215611f6357611f62611a96565b5b6000611f7184828501611bda565b91505092915050565b611f8381611b7b565b82525050565b611f9281611bb9565b82525050565b600081519050919050565b600082825260208201905092915050565b60005b83811015611fd2578082015181840152602081019050611fb7565b60008484015250505050565b6000601f19601f8301169050919050565b6000611ffa82611f98565b6120048185611fa3565b9350612014818560208601611fb4565b61201d81611fde565b840191505092915050565b61203181611e80565b82525050565b61204081611b25565b82525050565b7f4e487b7100000000000000000000000000000000000000000000000000000000600052602160045260246000fd5b6006811061208657612085612046565b5b50565b600081905061209782612075565b919050565b60006120a782612089565b9050919050565b6120b78161209c565b82525050565b6000610180830160008301516120d66000860182611f7a565b5060208301516120e96020860182611f7a565b5060408301516120fc6040860182611f7a565b50606083015161210f6060860182611f89565b5060808301516121226080860182611f89565b5060a083015184820360a086015261213a8282611fef565b91505060c083015161214f60c0860182612028565b5060e083015161216260e0860182612028565b50610100830151612177610100860182612037565b5061012083015161218c610120860182612037565b506101408301516121a1610140860182612037565b506101608301516121b66101608601826120ae565b508091505092915050565b600060208201905081810360008301526121db81846120bd565b905092915050565b60008060008060008060808789031215612200576121ff611a96565b5b600061220e89828a01611bda565b965050602087013567ffffffffffffffff81111561222f5761222e611a9b565b5b61223b89828a01611d06565b9550955050604061224e89828a01611bda565b935050606087013567ffffffffffffffff81111561226f5761226e611a9b565b5b61227b89828a01611d06565b92509250509295509295509295565b7f4e487b7100000000000000000000000000000000000000000000000000000000600052601160045260246000fd5b60006122c482611bb9565b91507fffffffffffffffffffffffffffffffffffffffffffffffffffffffffffffffff82036122f6576122f561228a565b5b600182019050919050565b600081905092915050565b82818337600083830152505050565b60006123278385612301565b935061233483858461230c565b82840190509392505050565b600061234d82848661231b565b91508190509392505050565b7f4e487b7100000000000000000000000000000000000000000000000000000000600052604160045260246000fd5b7f4e487b7100000000000000000000000000000000000000000000000000000000600052602260045260246000fd5b600060028204905060018216806123cf57607f821691505b6020821081036123e2576123e1612388565b5b50919050565b60008190508160005260206000209050919050565b60006020601f8301049050919050565b600082821b905092915050565b60006008830261244a7fffffffffffffffffffffffffffffffffffffffffffffffffffffffffffffffff8261240d565b612454868361240d565b95508019841693508086168417925050509392505050565b6000819050919050565b600061249161248c61248784611bb9565b61246c565b611bb9565b9050919050565b6000819050919050565b6124ab83612476565b6124bf6124b782612498565b84845461241a565b825550505050565b600090565b6124d46124c7565b6124df8184846124a2565b505050565b5b81811015612503576124f86000826124cc565b6001810190506124e5565b5050565b601f82111561254857612519816123e8565b612522846123fd565b81016020851015612531578190505b61254561253d856123fd565b8301826124e4565b50505b505050565b600082821c905092915050565b600061256b6000198460080261254d565b1980831691505092915050565b6000612584838361255a565b9150826002028217905092915050565b61259d82611f98565b67ffffffffffffffff8111156125b6576125b5612359565b5b6125c082546123b7565b6125cb828285612507565b600060209050601f8311600181146125fe57600084156125ec578287015190505b6125f68582612578565b86555061265e565b601f19841661260c866123e8565b60005b828110156126345784890151825560018201915060208501945060208101905061260f565b86831015612651578489015161264d601f89168261255a565b8355505b6001600288020188555050505b505050505050565b61266f81611b7b565b82525050565b600082825260208201905092915050565b60006126928385612675565b935061269f83858461230c565b6126a883611fde565b840190509392505050565b600060a0820190506126c86000830189612666565b6126d56020830188611df6565b6126e26040830187611df6565b81810360608301526126f5818587612686565b90506127046080830184611ee3565b979650505050505050565b6127188161209c565b82525050565b6000604082019050612733600083018561270f565b612740602083018461270f565b9392505050565b60006040820190508181036000830152612762818587612686565b90506127716020830184611ee3565b949350505050565b60008154612786816123b7565b6127908186612675565b945060018216600081146127ab57600181146127c1576127f4565b60ff1983168652811515602002860193506127f4565b6127ca856123e8565b60005b838110156127ec578154818901526001820191506020810190506127cd565b808801955050505b50505092915050565b600060608201905081810360008301526128178187612779565b90506128266020830186611ee3565b8181036040830152612839818486612686565b905095945050505050565b600061284f82611bb9565b915061285a83611bb9565b92508282019050808211156128725761287161228a565b5b92915050565b60006060820190508181036000830152612893818789612686565b90506128a26020830186611df6565b81810360408301526128b5818486612686565b90509695505050505050565b60006060820190506128d66000830186612666565b6128e36020830185612666565b6128f06040830184611df6565b949350505050565b60008151905061290781611b8d565b92915050565b60006020828403121561292357612922611a96565b5b6000612931848285016128f8565b91505092915050565b600060408201905081810360008301526129548185612779565b90506129636020830184611ee3565b9392505050565b600060408201905061297f6000830185612666565b61298c6020830184611ee3565b939250505056fea2646970667358221220f2f1b5f296c017e856f05a4ba518d4ed7e551baf599f304d63d6a053525f33d764736f6c63430008140033",
  "linkReferences": {},
  "deployedLinkReferences": {}
}